{
  "contractName": "MovieDist",
  "abi": [
    {
      "constant": true,
      "inputs": [
        {
          "name": "",
          "type": "bytes32"
        }
      ],
      "name": "movies",
      "outputs": [
        {
          "name": "name",
          "type": "string"
        },
        {
          "name": "price",
          "type": "uint256"
        },
        {
          "name": "theater",
          "type": "address"
        },
        {
          "name": "isValue",
          "type": "bool"
        }
      ],
      "payable": false,
      "stateMutability": "view",
      "type": "function"
    },
    {
      "constant": true,
      "inputs": [
        {
          "name": "",
          "type": "address"
        }
      ],
      "name": "balances",
      "outputs": [
        {
          "name": "",
          "type": "uint256"
        }
      ],
      "payable": false,
      "stateMutability": "view",
      "type": "function"
    },
    {
      "constant": true,
      "inputs": [],
      "name": "movieCount",
      "outputs": [
        {
          "name": "",
          "type": "uint256"
        }
      ],
      "payable": false,
      "stateMutability": "view",
      "type": "function"
    },
    {
      "constant": true,
      "inputs": [
        {
          "name": "",
          "type": "uint256"
        }
      ],
      "name": "movieList",
      "outputs": [
        {
          "name": "",
          "type": "bytes32"
        }
      ],
      "payable": false,
      "stateMutability": "view",
      "type": "function"
    },
    {
      "constant": false,
      "inputs": [
        {
          "name": "movieHash",
          "type": "bytes32"
        },
        {
          "name": "name",
          "type": "string"
        },
        {
          "name": "price",
          "type": "uint256"
        }
      ],
      "name": "addMovie",
      "outputs": [],
      "payable": false,
      "stateMutability": "nonpayable",
      "type": "function"
    },
    {
      "constant": false,
      "inputs": [
        {
          "name": "movieHash",
          "type": "bytes32"
        }
      ],
      "name": "buyMovie",
      "outputs": [],
      "payable": true,
      "stateMutability": "payable",
      "type": "function"
    },
    {
      "constant": false,
      "inputs": [
        {
          "name": "movieHash",
          "type": "bytes32"
        },
        {
          "name": "theater",
          "type": "address"
        }
      ],
      "name": "sendMovie",
      "outputs": [],
      "payable": false,
      "stateMutability": "nonpayable",
      "type": "function"
    },
    {
      "constant": false,
      "inputs": [
        {
          "name": "amount",
          "type": "uint256"
        }
      ],
      "name": "withdraw",
      "outputs": [],
      "payable": false,
      "stateMutability": "nonpayable",
      "type": "function"
    },
    {
      "constant": true,
      "inputs": [],
      "name": "getMovieCount",
      "outputs": [
        {
          "name": "",
          "type": "uint256"
        }
      ],
      "payable": false,
      "stateMutability": "view",
      "type": "function"
    },
    {
      "constant": true,
      "inputs": [
        {
          "name": "index",
          "type": "uint256"
        }
      ],
      "name": "getMovieDetails",
      "outputs": [
        {
          "name": "",
          "type": "bytes32"
        },
        {
          "name": "",
          "type": "string"
        },
        {
          "name": "",
          "type": "uint256"
        },
        {
          "name": "",
          "type": "address"
        }
      ],
      "payable": false,
      "stateMutability": "view",
      "type": "function"
    },
    {
      "constant": true,
      "inputs": [],
      "name": "getAllMovieDetails",
      "outputs": [
        {
          "name": "",
          "type": "bytes32[]"
        },
        {
          "name": "",
          "type": "string[]"
        },
        {
          "name": "",
          "type": "uint256[]"
        },
        {
          "name": "",
          "type": "address[]"
        }
      ],
      "payable": false,
      "stateMutability": "view",
      "type": "function"
    }
  ],
  "bytecode": "0x606060405260008055341561001357600080fd5b611551806100226000396000f3006060604052600436106100af576000357c0100000000000000000000000000000000000000000000000000000000900463ffffffff168063010592ba146100b45780631fe6fe36146100ed57806327e235e3146101195780632d003b3e1461014f5780632e1a7d4d1461017157806358d26191146101935780635c7b14c1146101aa578063a1daf326146101e3578063bf58ae3d1461020c578063ea7f123114610242578063f6273e481461026b575b600080fd5b34156100bf57600080fd5b6100d460046100cf903690610e6a565b61028d565b6040516100e494939291906112d4565b60405180910390f35b34156100f857600080fd5b6101006102e9565b604051610110949392919061120c565b60405180910390f35b341561012457600080fd5b6101396004610134903690610e41565b6105e5565b6040516101469190611320565b60405180910390f35b341561015a57600080fd5b61016f600461016a903690610ecf565b6105fd565b005b341561017c57600080fd5b610191600461018c903690610f36565b610750565b005b6101a860046101a3903690610e6a565b61082e565b005b34156101b557600080fd5b6101ca60046101c5903690610f36565b6109a1565b6040516101da9493929190611288565b60405180910390f35b34156101ee57600080fd5b6101f6610aef565b6040516102039190611320565b60405180910390f35b341561021757600080fd5b61022c6004610227903690610f36565b610af5565b604051610239919061126d565b60405180910390f35b341561024d57600080fd5b610255610b0d565b6040516102629190611320565b60405180910390f35b341561027657600080fd5b61028b6004610286903690610e93565b610b16565b005b600160205280600052604060002060009150905080600001908060010154908060020160009054906101000a900473ffffffffffffffffffffffffffffffffffffffff16908060020160149054906101000a900460ff16905084565b6102f1610c92565b6102f9610ca6565b610301610cba565b610309610cce565b610311610c92565b610319610ca6565b610321610cba565b610329610cce565b60008060005460405180591061033c5750595b9080825280602002602001820160405250955060005460405180591061035f5750595b90808252806020026020018201604052801561039557816020015b610382610ce2565b81526020019060019003908161037a5790505b5094506000546040518059106103a85750595b908082528060200260200182016040525093506000546040518059106103cb5750595b90808252806020026020018201604052509250600091505b6000548210156105cd576003600083815260200190815260200160002054905080868381518110151561041257fe5b9060200190602002019060001916908160001916815250506001600082600019166000191681526020019081526020016000206000018054600181600116156101000203166002900480601f0160208091040260200160405190810160405280929190818152602001828054600181600116156101000203166002900480156104dc5780601f106104b1576101008083540402835291602001916104dc565b820191906000526020600020905b8154815290600101906020018083116104bf57829003601f168201915b505050505085838151811015156104ef57fe5b9060200190602002018190525060016000826000191660001916815260200190815260200160002060010154848381518110151561052957fe5b906020019060200201818152505060016000826000191660001916815260200190815260200160002060020160009054906101000a900473ffffffffffffffffffffffffffffffffffffffff16838381518110151561058457fe5b9060200190602002019073ffffffffffffffffffffffffffffffffffffffff16908173ffffffffffffffffffffffffffffffffffffffff168152505081806001019250506103e3565b85858585995099509950995050505050505090919293565b60026020528060005260406000206000915090505481565b60016000846000191660001916815260200190815260200160002060020160149054906101000a900460ff1615151561063557600080fd5b608060405190810160405280838152602001828152602001600073ffffffffffffffffffffffffffffffffffffffff1681526020016001151581525060016000856000191660001916815260200190815260200160002060008201518160000190805190602001906106a8929190610cf6565b506020820151816001015560408201518160020160006101000a81548173ffffffffffffffffffffffffffffffffffffffff021916908373ffffffffffffffffffffffffffffffffffffffff16021790555060608201518160020160146101000a81548160ff02191690831515021790555090505082600360008054815260200190815260200160002081600019169055506000808154809291906001019190505550505050565b80600260003373ffffffffffffffffffffffffffffffffffffffff1673ffffffffffffffffffffffffffffffffffffffff168152602001908152602001600020541015151561079e57600080fd5b80600260003373ffffffffffffffffffffffffffffffffffffffff1673ffffffffffffffffffffffffffffffffffffffff168152602001908152602001600020600082825403925050819055503373ffffffffffffffffffffffffffffffffffffffff166108fc829081150290604051600060405180830381858888f19350505050151561082b57600080fd5b50565b60016000826000191660001916815260200190815260200160002060020160149054906101000a900460ff16151561086557600080fd5b600060016000836000191660001916815260200190815260200160002060020160009054906101000a900473ffffffffffffffffffffffffffffffffffffffff1673ffffffffffffffffffffffffffffffffffffffff161415156108c857600080fd5b60016000826000191660001916815260200190815260200160002060010154341415156108f457600080fd5b3360016000836000191660001916815260200190815260200160002060020160006101000a81548173ffffffffffffffffffffffffffffffffffffffff021916908373ffffffffffffffffffffffffffffffffffffffff16021790555034600260003373ffffffffffffffffffffffffffffffffffffffff1673ffffffffffffffffffffffffffffffffffffffff1681526020019081526020016000206000828254019250508190555050565b60006109ab610d76565b600080600060036000878152602001908152602001600020549050806001600083600019166000191681526020019081526020016000206000016001600084600019166000191681526020019081526020016000206001015460016000856000191660001916815260200190815260200160002060020160009054906101000a900473ffffffffffffffffffffffffffffffffffffffff16828054600181600116156101000203166002900480601f016020809104026020016040519081016040528092919081815260200182805460018160011615610100020316600290048015610ad85780601f10610aad57610100808354040283529160200191610ad8565b820191906000526020600020905b815481529060010190602001808311610abb57829003601f168201915b505050505092509450945094509450509193509193565b60005481565b60036020528060005260406000206000915090505481565b60008054905090565b60016000836000191660001916815260200190815260200160002060020160149054906101000a900460ff161515610b4d57600080fd5b8073ffffffffffffffffffffffffffffffffffffffff1660016000846000191660001916815260200190815260200160002060020160009054906101000a900473ffffffffffffffffffffffffffffffffffffffff1673ffffffffffffffffffffffffffffffffffffffff16141515610bc557600080fd5b60016000836000191660001916815260200190815260200160002060010154600260008373ffffffffffffffffffffffffffffffffffffffff1673ffffffffffffffffffffffffffffffffffffffff16815260200190815260200160002060008282540192505081905550600060016000846000191660001916815260200190815260200160002060020160006101000a81548173ffffffffffffffffffffffffffffffffffffffff021916908373ffffffffffffffffffffffffffffffffffffffff1602179055505050565b602060405190810160405280600081525090565b602060405190810160405280600081525090565b602060405190810160405280600081525090565b602060405190810160405280600081525090565b602060405190810160405280600081525090565b828054600181600116156101000203166002900490600052602060002090601f016020900481019282601f10610d3757805160ff1916838001178555610d65565b82800160010185558215610d65579182015b82811115610d64578251825591602001919060010190610d49565b5b509050610d729190610d8a565b5090565b602060405190810160405280600081525090565b610dac91905b80821115610da8576000816000905550600101610d90565b5090565b90565b6000610dbb8235611490565b905092915050565b6000610dcf82356114b0565b905092915050565b600082601f8301121515610dea57600080fd5b8135610dfd610df882611368565b61133b565b91508082526020830160208301858383011115610e1957600080fd5b610e248382846114c4565b50505092915050565b6000610e3982356114ba565b905092915050565b600060208284031215610e5357600080fd5b6000610e6184828501610daf565b91505092915050565b600060208284031215610e7c57600080fd5b6000610e8a84828501610dc3565b91505092915050565b60008060408385031215610ea657600080fd5b6000610eb485828601610dc3565b9250506020610ec585828601610daf565b9150509250929050565b600080600060608486031215610ee457600080fd5b6000610ef286828701610dc3565b935050602084013567ffffffffffffffff811115610f0f57600080fd5b610f1b86828701610dd7565b9250506040610f2c86828701610e2d565b9150509250925092565b600060208284031215610f4857600080fd5b6000610f5684828501610e2d565b91505092915050565b610f6881611450565b82525050565b6000610f79826113da565b808452602084019350610f8b83611394565b60005b82811015610fbd57610fa1868351610f5f565b610faa8261141c565b9150602086019550600181019050610f8e565b50849250505092915050565b6000610fd4826113e5565b808452602084019350610fe6836113a1565b60005b8281101561101857610ffc8683516110fc565b61100582611429565b9150602086019550600181019050610fe9565b50849250505092915050565b600061102f826113f0565b80845260208401935083602082028501611048856113ae565b60005b84811015611081578383038852611063838351611141565b925061106e82611436565b915060208801975060018101905061104b565b508196508694505050505092915050565b600061109d826113fb565b8084526020840193506110af836113bb565b60005b828110156110e1576110c58683516111fd565b6110ce82611443565b91506020860195506001810190506110b2565b50849250505092915050565b6110f681611470565b82525050565b6111058161147c565b82525050565b600061111682611411565b80845261112a8160208601602086016114d3565b61113381611506565b602085010191505092915050565b600061114c82611406565b8084526111608160208601602086016114d3565b61116981611506565b602085010191505092915050565b60008154600181166000811461119457600181146111b4576111f5565b607f600283041680865260ff1983166020870152604086019350506111f5565b600282048086526020860195506111ca856113c8565b60005b828110156111ec578154818901526001820191506020810190506111cd565b80880195505050505b505092915050565b61120681611486565b82525050565b600060808201905081810360008301526112268187610fc9565b9050818103602083015261123a8186611024565b9050818103604083015261124e8185611092565b905081810360608301526112628184610f6e565b905095945050505050565b600060208201905061128260008301846110fc565b92915050565b600060808201905061129d60008301876110fc565b81810360208301526112af818661110b565b90506112be60408301856111fd565b6112cb6060830184610f5f565b95945050505050565b600060808201905081810360008301526112ee8187611177565b90506112fd60208301866111fd565b61130a6040830185610f5f565b61131760608301846110ed565b95945050505050565b600060208201905061133560008301846111fd565b92915050565b6000604051905081810181811067ffffffffffffffff8211171561135e57600080fd5b8060405250919050565b600067ffffffffffffffff82111561137f57600080fd5b601f19601f8301169050602081019050919050565b6000602082019050919050565b6000602082019050919050565b6000602082019050919050565b6000602082019050919050565b60008160005260206000209050919050565b600081519050919050565b600081519050919050565b600081519050919050565b600081519050919050565b600081519050919050565b600081519050919050565b6000602082019050919050565b6000602082019050919050565b6000602082019050919050565b6000602082019050919050565b600073ffffffffffffffffffffffffffffffffffffffff82169050919050565b60008115159050919050565b6000819050919050565b6000819050919050565b600073ffffffffffffffffffffffffffffffffffffffff82169050919050565b6000819050919050565b6000819050919050565b82818337600083830152505050565b60005b838110156114f15780820151818401526020810190506114d6565b83811115611500576000848401525b50505050565b6000601f19601f83011690509190505600a265627a7a7230582032a81ea97c5e82a0ef06bf3ceae53b9822cd935cb82be0637528fee4421df46f6c6578706572696d656e74616cf50037",
  "source": "//SPF-License-Identifier: UNLICENSED\r\n//Smart contract for a producer to distribute a movie to a theater\r\n//Information about the movie is stored in the blockchain and the producer can distribute the movie to a theater\r\n// Producer can store details like the movie name and price in the blockchain (MovieHash, MovieName, Price) \r\n// Theater can buy the movie (MovieHash) and the producer can send the movie to the theater (MovieHash, TheaterAddress)\r\n// The producer can also withdraw the money from the contract (MovieHash, Amount)\r\n\r\npragma solidity ^0.4.0;\r\npragma experimental ABIEncoderV2;\r\n\r\ncontract MovieDist {\r\n    struct Movie {\r\n        string name;\r\n        uint price;\r\n        address theater;\r\n        bool isValue;\r\n    }\r\n\r\n    //counter to keep track of the number of movies in the mapping\r\n    uint public movieCount = 0;\r\n\r\n    //mapping to store the movies\r\n    mapping (bytes32 => Movie) public movies;\r\n\r\n    //mapping to store the balances of the theaters\r\n    mapping (address => uint) public balances;\r\n\r\n    mapping(uint => bytes32) public movieList;\r\n    //function to add a movie to the mapping\r\n    function addMovie(bytes32 movieHash, string name, uint price) public {\r\n        require(!movies[movieHash].isValue);\r\n        movies[movieHash] = Movie(name, price, 0, true);\r\n        movieList[movieCount] = movieHash;\r\n        movieCount++;\r\n    }\r\n\r\n    //function to buy a movie\r\n    function buyMovie(bytes32 movieHash) public payable {\r\n        require(movies[movieHash].isValue);\r\n        require(movies[movieHash].theater == 0);\r\n        require(msg.value == movies[movieHash].price);\r\n        movies[movieHash].theater = msg.sender;\r\n        balances[msg.sender] += msg.value;\r\n    }\r\n\r\n    //function to send a movie to a theater\r\n    function sendMovie(bytes32 movieHash, address theater) public {\r\n        require(movies[movieHash].isValue);\r\n        require(movies[movieHash].theater == theater);\r\n        balances[theater] += movies[movieHash].price;\r\n        movies[movieHash].theater = 0;\r\n    }\r\n\r\n    //function to withdraw the money from the contract\r\n    function withdraw(uint amount) public {\r\n        require(balances[msg.sender] >= amount);\r\n        balances[msg.sender] -= amount;\r\n        msg.sender.transfer(amount);\r\n    }\r\n\r\n    function getMovieCount() public view returns (uint) {\r\n        return movieCount;\r\n    }\r\n\r\n    //Get movie details function to get the details of a movie (finds all the movie hashes from movieList and returns the details of the movie)\r\n    function getMovieDetails(uint index) public view returns (bytes32, string, uint, address) {\r\n        bytes32 movieHash = movieList[index];\r\n        return (movieHash, movies[movieHash].name, movies[movieHash].price, movies[movieHash].theater);\r\n    }\r\n    function getAllMovieDetails() public view returns (bytes32[], string[], uint[], address[]) {\r\n        bytes32[] memory movieHashes = new bytes32[](movieCount);\r\n        string[] memory movieNames = new string[](movieCount);\r\n        uint[] memory moviePrices = new uint[](movieCount);\r\n        address[] memory movieTheaters = new address[](movieCount);\r\n        for (uint i = 0; i < movieCount; i++) {\r\n            bytes32 movieHash = movieList[i];\r\n            movieHashes[i] = movieHash;\r\n            movieNames[i] = movies[movieHash].name;\r\n            moviePrices[i] = movies[movieHash].price;\r\n            movieTheaters[i] = movies[movieHash].theater;\r\n        }\r\n        return (movieHashes, movieNames, moviePrices, movieTheaters);\r\n    }\r\n}\r\n\r\n\r\n/*\r\n Functions implemented:\r\n    addMovie(bytes32 movieHash, string name, uint price) public\r\n    buyMovie(bytes32 movieHash) public payable\r\n    sendMovie(bytes32 movieHash, address theater) public\r\n    withdraw(uint amount) public\r\n    getMovieCount() public view returns (uint)\r\n    getMovieDetails(uint index) public view returns (bytes32, string, uint, address)\r\n*/",
  "sourcePath": "C:\\PreetMain\\Learning\\VIT\\Sem6\\Blockchain\\Test2\\movie_dist\\contracts\\MovieDist.sol",
  "compiler": {
    "name": "solc",
    "version": "0.4.20+commit.3155dd80.Emscripten.clang"
  },
  "schemaVersion": "3.4.13",
  "updatedAt": "2023-04-04T16:58:26.288Z",
  "networkType": "ethereum",
  "devdoc": {
    "methods": {}
  },
  "userdoc": {
    "methods": {}
  }
}