{
  "contractName": "MovieDist",
  "abi": [
    {
      "constant": true,
      "inputs": [
        {
          "name": "",
          "type": "bytes32"
        }
      ],
      "name": "movies",
      "outputs": [
        {
          "name": "name",
          "type": "string"
        },
        {
          "name": "price",
          "type": "uint256"
        },
        {
          "name": "theater",
          "type": "address"
        },
        {
          "name": "isValue",
          "type": "bool"
        }
      ],
      "payable": false,
      "stateMutability": "view",
      "type": "function"
    },
    {
      "constant": true,
      "inputs": [
        {
          "name": "",
          "type": "address"
        }
      ],
      "name": "balances",
      "outputs": [
        {
          "name": "",
          "type": "uint256"
        }
      ],
      "payable": false,
      "stateMutability": "view",
      "type": "function"
    },
    {
      "constant": true,
      "inputs": [],
      "name": "movieCount",
      "outputs": [
        {
          "name": "",
          "type": "uint256"
        }
      ],
      "payable": false,
      "stateMutability": "view",
      "type": "function"
    },
    {
      "constant": true,
      "inputs": [
        {
          "name": "",
          "type": "uint256"
        }
      ],
      "name": "movieList",
      "outputs": [
        {
          "name": "",
          "type": "bytes32"
        }
      ],
      "payable": false,
      "stateMutability": "view",
      "type": "function"
    },
    {
      "constant": false,
      "inputs": [
        {
          "name": "movieHash",
          "type": "bytes32"
        },
        {
          "name": "name",
          "type": "string"
        },
        {
          "name": "price",
          "type": "uint256"
        }
      ],
      "name": "addMovie",
      "outputs": [],
      "payable": false,
      "stateMutability": "nonpayable",
      "type": "function"
    },
    {
      "constant": false,
      "inputs": [
        {
          "name": "movieHash",
          "type": "bytes32"
        }
      ],
      "name": "buyMovie",
      "outputs": [],
      "payable": true,
      "stateMutability": "payable",
      "type": "function"
    },
    {
      "constant": false,
      "inputs": [
        {
          "name": "movieHash",
          "type": "bytes32"
        },
        {
          "name": "theater",
          "type": "address"
        }
      ],
      "name": "sendMovie",
      "outputs": [],
      "payable": false,
      "stateMutability": "nonpayable",
      "type": "function"
    },
    {
      "constant": false,
      "inputs": [
        {
          "name": "amount",
          "type": "uint256"
        }
      ],
      "name": "withdraw",
      "outputs": [],
      "payable": false,
      "stateMutability": "nonpayable",
      "type": "function"
    },
    {
      "constant": true,
      "inputs": [],
      "name": "getMovieCount",
      "outputs": [
        {
          "name": "",
          "type": "uint256"
        }
      ],
      "payable": false,
      "stateMutability": "view",
      "type": "function"
    },
    {
      "constant": true,
      "inputs": [
        {
          "name": "index",
          "type": "uint256"
        }
      ],
      "name": "getMovieDetails",
      "outputs": [
        {
          "name": "",
          "type": "bytes32"
        },
        {
          "name": "",
          "type": "string"
        },
        {
          "name": "",
          "type": "uint256"
        },
        {
          "name": "",
          "type": "address"
        }
      ],
      "payable": false,
      "stateMutability": "view",
      "type": "function"
    }
  ],
  "bytecode": "0x606060405260008055341561001357600080fd5b610bf1806100226000396000f3006060604052600436106100a4576000357c0100000000000000000000000000000000000000000000000000000000900463ffffffff168063010592ba146100a957806327e235e3146101ab5780632d003b3e146101f85780632e1a7d4d1461026b57806358d261911461028e5780635c7b14c1146102aa578063a1daf3261461038f578063bf58ae3d146103b8578063ea7f1231146103f7578063f6273e4814610420575b600080fd5b34156100b457600080fd5b6100ce600480803560001916906020019091905050610466565b60405180806020018581526020018473ffffffffffffffffffffffffffffffffffffffff1673ffffffffffffffffffffffffffffffffffffffff168152602001831515151581526020018281038252868181546001816001161561010002031660029004815260200191508054600181600116156101000203166002900480156101995780601f1061016e57610100808354040283529160200191610199565b820191906000526020600020905b81548152906001019060200180831161017c57829003601f168201915b50509550505050505060405180910390f35b34156101b657600080fd5b6101e2600480803573ffffffffffffffffffffffffffffffffffffffff169060200190919050506104c2565b6040518082815260200191505060405180910390f35b341561020357600080fd5b61026960048080356000191690602001909190803590602001908201803590602001908080601f016020809104026020016040519081016040528093929190818152602001838380828437820191505050505050919080359060200190919050506104da565b005b341561027657600080fd5b61028c600480803590602001909190505061062d565b005b6102a860048080356000191690602001909190505061070b565b005b34156102b557600080fd5b6102cb600480803590602001909190505061081b565b604051808560001916600019168152602001806020018481526020018373ffffffffffffffffffffffffffffffffffffffff1673ffffffffffffffffffffffffffffffffffffffff168152602001828103825285818151815260200191508051906020019080838360005b83811015610351578082015181840152602081019050610336565b50505050905090810190601f16801561037e5780820380516001836020036101000a031916815260200191505b509550505050505060405180910390f35b341561039a57600080fd5b6103a2610969565b6040518082815260200191505060405180910390f35b34156103c357600080fd5b6103d9600480803590602001909190505061096f565b60405180826000191660001916815260200191505060405180910390f35b341561040257600080fd5b61040a610987565b6040518082815260200191505060405180910390f35b341561042b57600080fd5b61046460048080356000191690602001909190803573ffffffffffffffffffffffffffffffffffffffff16906020019091905050610990565b005b600160205280600052604060002060009150905080600001908060010154908060020160009054906101000a900473ffffffffffffffffffffffffffffffffffffffff16908060020160149054906101000a900460ff16905084565b60026020528060005260406000206000915090505481565b60016000846000191660001916815260200190815260200160002060020160149054906101000a900460ff1615151561051257600080fd5b608060405190810160405280838152602001828152602001600073ffffffffffffffffffffffffffffffffffffffff168152602001600115158152506001600085600019166000191681526020019081526020016000206000820151816000019080519060200190610585929190610b0c565b506020820151816001015560408201518160020160006101000a81548173ffffffffffffffffffffffffffffffffffffffff021916908373ffffffffffffffffffffffffffffffffffffffff16021790555060608201518160020160146101000a81548160ff02191690831515021790555090505082600360008054815260200190815260200160002081600019169055506000808154809291906001019190505550505050565b80600260003373ffffffffffffffffffffffffffffffffffffffff1673ffffffffffffffffffffffffffffffffffffffff168152602001908152602001600020541015151561067b57600080fd5b80600260003373ffffffffffffffffffffffffffffffffffffffff1673ffffffffffffffffffffffffffffffffffffffff168152602001908152602001600020600082825403925050819055503373ffffffffffffffffffffffffffffffffffffffff166108fc829081150290604051600060405180830381858888f19350505050151561070857600080fd5b50565b60016000826000191660001916815260200190815260200160002060020160149054906101000a900460ff16151561074257600080fd5b600160008260001916600019168152602001908152602001600020600101543414151561076e57600080fd5b3360016000836000191660001916815260200190815260200160002060020160006101000a81548173ffffffffffffffffffffffffffffffffffffffff021916908373ffffffffffffffffffffffffffffffffffffffff16021790555034600260003373ffffffffffffffffffffffffffffffffffffffff1673ffffffffffffffffffffffffffffffffffffffff1681526020019081526020016000206000828254019250508190555050565b6000610825610b8c565b600080600060036000878152602001908152602001600020549050806001600083600019166000191681526020019081526020016000206000016001600084600019166000191681526020019081526020016000206001015460016000856000191660001916815260200190815260200160002060020160009054906101000a900473ffffffffffffffffffffffffffffffffffffffff16828054600181600116156101000203166002900480601f0160208091040260200160405190810160405280929190818152602001828054600181600116156101000203166002900480156109525780601f1061092757610100808354040283529160200191610952565b820191906000526020600020905b81548152906001019060200180831161093557829003601f168201915b505050505092509450945094509450509193509193565b60005481565b60036020528060005260406000206000915090505481565b60008054905090565b60016000836000191660001916815260200190815260200160002060020160149054906101000a900460ff1615156109c757600080fd5b8073ffffffffffffffffffffffffffffffffffffffff1660016000846000191660001916815260200190815260200160002060020160009054906101000a900473ffffffffffffffffffffffffffffffffffffffff1673ffffffffffffffffffffffffffffffffffffffff16141515610a3f57600080fd5b60016000836000191660001916815260200190815260200160002060010154600260008373ffffffffffffffffffffffffffffffffffffffff1673ffffffffffffffffffffffffffffffffffffffff16815260200190815260200160002060008282540192505081905550600060016000846000191660001916815260200190815260200160002060020160006101000a81548173ffffffffffffffffffffffffffffffffffffffff021916908373ffffffffffffffffffffffffffffffffffffffff1602179055505050565b828054600181600116156101000203166002900490600052602060002090601f016020900481019282601f10610b4d57805160ff1916838001178555610b7b565b82800160010185558215610b7b579182015b82811115610b7a578251825591602001919060010190610b5f565b5b509050610b889190610ba0565b5090565b602060405190810160405280600081525090565b610bc291905b80821115610bbe576000816000905550600101610ba6565b5090565b905600a165627a7a72305820e1c5b5e8c72797b4aed4d7ebba2f1766687a71c2783918c4d135a056f1decd980029",
  "source": "//SPF-License-Identifier: UNLICENSED\r\n//Smart contract for a producer to distribute a movie to a theater\r\n//Information about the movie is stored in the blockchain and the producer can distribute the movie to a theater\r\n// Producer can store details like the movie name and price in the blockchain (MovieHash, MovieName, Price) \r\n// Theater can buy the movie (MovieHash) and the producer can send the movie to the theater (MovieHash, TheaterAddress)\r\n// The producer can also withdraw the money from the contract (MovieHash, Amount)\r\n\r\npragma solidity ^0.4.0;\r\n\r\ncontract MovieDist {\r\n    struct Movie {\r\n        string name;\r\n        uint price;\r\n        address theater;\r\n        bool isValue;\r\n    }\r\n\r\n    //counter to keep track of the number of movies in the mapping\r\n    uint public movieCount = 0;\r\n\r\n    //mapping to store the movies\r\n    mapping (bytes32 => Movie) public movies;\r\n\r\n    //mapping to store the balances of the theaters\r\n    mapping (address => uint) public balances;\r\n\r\n    mapping(uint => bytes32) public movieList;\r\n    //function to add a movie to the mapping\r\n    function addMovie(bytes32 movieHash, string name, uint price) public {\r\n        require(!movies[movieHash].isValue);\r\n        movies[movieHash] = Movie(name, price, 0, true);\r\n        movieList[movieCount] = movieHash;\r\n        movieCount++;\r\n    }\r\n\r\n    //function to buy a movie\r\n    function buyMovie(bytes32 movieHash) public payable {\r\n        require(movies[movieHash].isValue);\r\n        require(msg.value == movies[movieHash].price);\r\n        movies[movieHash].theater = msg.sender;\r\n        balances[msg.sender] += msg.value;\r\n    }\r\n\r\n    //function to send a movie to a theater\r\n    function sendMovie(bytes32 movieHash, address theater) public {\r\n        require(movies[movieHash].isValue);\r\n        require(movies[movieHash].theater == theater);\r\n        balances[theater] += movies[movieHash].price;\r\n        movies[movieHash].theater = 0;\r\n    }\r\n\r\n    //function to withdraw the money from the contract\r\n    function withdraw(uint amount) public {\r\n        require(balances[msg.sender] >= amount);\r\n        balances[msg.sender] -= amount;\r\n        msg.sender.transfer(amount);\r\n    }\r\n\r\n    function getMovieCount() public view returns (uint) {\r\n        return movieCount;\r\n    }\r\n\r\n    //Get movie details function to get the details of a movie (finds all the movie hashes from movieList and returns the details of the movie)\r\n    function getMovieDetails(uint index) public view returns (bytes32, string, uint, address) {\r\n        bytes32 movieHash = movieList[index];\r\n        return (movieHash, movies[movieHash].name, movies[movieHash].price, movies[movieHash].theater);\r\n    }\r\n}\r\n\r\n\r\n/*\r\n Functions implemented:\r\n    addMovie(bytes32 movieHash, string name, uint price) public\r\n    buyMovie(bytes32 movieHash) public payable\r\n    sendMovie(bytes32 movieHash, address theater) public\r\n    withdraw(uint amount) public\r\n    getMovieCount() public view returns (uint)\r\n    getMovieDetails(uint index) public view returns (bytes32, string, uint, address)\r\n*/",
  "sourcePath": "C:\\PreetMain\\Learning\\VIT\\Sem6\\Blockchain\\Test2\\movie_dist\\contracts\\MovieDist.sol",
  "compiler": {
    "name": "solc",
    "version": "0.4.20+commit.3155dd80.Emscripten.clang"
  },
  "schemaVersion": "3.4.13",
  "updatedAt": "2023-04-03T18:33:10.940Z",
  "networkType": "ethereum",
  "devdoc": {
    "methods": {}
  },
  "userdoc": {
    "methods": {}
  }
}